{
  "_format": "hh-sol-artifact-1",
  "contractName": "Staking",
  "sourceName": "contracts/Staking.sol",
  "abi": [
    {
      "inputs": [],
      "stateMutability": "nonpayable",
      "type": "constructor"
    },
    {
      "inputs": [
        {
          "internalType": "address",
          "name": "",
          "type": "address"
        },
        {
          "internalType": "bytes32",
          "name": "",
          "type": "bytes32"
        }
      ],
      "name": "accountBalances",
      "outputs": [
        {
          "internalType": "uint256",
          "name": "",
          "type": "uint256"
        }
      ],
      "stateMutability": "view",
      "type": "function"
    },
    {
      "inputs": [
        {
          "internalType": "bytes32",
          "name": "symbol",
          "type": "bytes32"
        },
        {
          "internalType": "address",
          "name": "tokenAddress",
          "type": "address"
        }
      ],
      "name": "allowedListToken",
      "outputs": [],
      "stateMutability": "nonpayable",
      "type": "function"
    },
    {
      "inputs": [
        {
          "internalType": "bytes32",
          "name": "",
          "type": "bytes32"
        }
      ],
      "name": "allowedListTokens",
      "outputs": [
        {
          "internalType": "address",
          "name": "",
          "type": "address"
        }
      ],
      "stateMutability": "view",
      "type": "function"
    },
    {
      "inputs": [
        {
          "internalType": "uint256",
          "name": "amount",
          "type": "uint256"
        },
        {
          "internalType": "bytes32",
          "name": "symbol",
          "type": "bytes32"
        }
      ],
      "name": "depositTokens",
      "outputs": [],
      "stateMutability": "nonpayable",
      "type": "function"
    },
    {
      "inputs": [
        {
          "internalType": "uint256",
          "name": "amount",
          "type": "uint256"
        },
        {
          "internalType": "bytes32",
          "name": "symbol",
          "type": "bytes32"
        }
      ],
      "name": "withdrawTokens",
      "outputs": [],
      "stateMutability": "nonpayable",
      "type": "function"
    }
  ],
  "bytecode": "0x608060405234801561001057600080fd5b50336000806101000a81548173ffffffffffffffffffffffffffffffffffffffff021916908373ffffffffffffffffffffffffffffffffffffffff1602179055506109e6806100606000396000f3fe608060405234801561001057600080fd5b50600436106100575760003560e01c80636a9968b51461005c5780638f97994b1461008c57806398ea1ee8146100a8578063d15b223e146100c4578063e64fe366146100e0575b600080fd5b61007660048036038101906100719190610574565b610110565b60405161008391906105e2565b60405180910390f35b6100a660048036038101906100a19190610633565b610143565b005b6100c260048036038101906100bd919061069f565b610302565b005b6100de60048036038101906100d99190610633565b6103e6565b005b6100fa60048036038101906100f591906106df565b610514565b604051610107919061072e565b60405180910390f35b60016020528060005260406000206000915054906101000a900473ffffffffffffffffffffffffffffffffffffffff1681565b81600260003373ffffffffffffffffffffffffffffffffffffffff1673ffffffffffffffffffffffffffffffffffffffff16815260200190815260200160002060008381526020019081526020016000205410156101d6576040517f08c379a00000000000000000000000000000000000000000000000000000000081526004016101cd906107a6565b60405180910390fd5b81600260003373ffffffffffffffffffffffffffffffffffffffff1673ffffffffffffffffffffffffffffffffffffffff1681526020019081526020016000206000838152602001908152602001600020600082825461023691906107f5565b925050819055506001600082815260200190815260200160002060009054906101000a900473ffffffffffffffffffffffffffffffffffffffff1673ffffffffffffffffffffffffffffffffffffffff1663a9059cbb33846040518363ffffffff1660e01b81526004016102ab929190610829565b602060405180830381600087803b1580156102c557600080fd5b505af11580156102d9573d6000803e3d6000fd5b505050506040513d601f19601f820116820180604052508101906102fd919061088a565b505050565b60008054906101000a900473ffffffffffffffffffffffffffffffffffffffff1673ffffffffffffffffffffffffffffffffffffffff163373ffffffffffffffffffffffffffffffffffffffff1614610390576040517f08c379a000000000000000000000000000000000000000000000000000000000815260040161038790610903565b60405180910390fd5b806001600084815260200190815260200160002060006101000a81548173ffffffffffffffffffffffffffffffffffffffff021916908373ffffffffffffffffffffffffffffffffffffffff1602179055505050565b81600260003373ffffffffffffffffffffffffffffffffffffffff1673ffffffffffffffffffffffffffffffffffffffff168152602001908152602001600020600083815260200190815260200160002060008282546104469190610923565b925050819055506001600082815260200190815260200160002060009054906101000a900473ffffffffffffffffffffffffffffffffffffffff1673ffffffffffffffffffffffffffffffffffffffff166323b872dd3330856040518463ffffffff1660e01b81526004016104bd93929190610979565b602060405180830381600087803b1580156104d757600080fd5b505af11580156104eb573d6000803e3d6000fd5b505050506040513d601f19601f8201168201806040525081019061050f919061088a565b505050565b6002602052816000526040600020602052806000526040600020600091509150505481565b600080fd5b6000819050919050565b6105518161053e565b811461055c57600080fd5b50565b60008135905061056e81610548565b92915050565b60006020828403121561058a57610589610539565b5b60006105988482850161055f565b91505092915050565b600073ffffffffffffffffffffffffffffffffffffffff82169050919050565b60006105cc826105a1565b9050919050565b6105dc816105c1565b82525050565b60006020820190506105f760008301846105d3565b92915050565b6000819050919050565b610610816105fd565b811461061b57600080fd5b50565b60008135905061062d81610607565b92915050565b6000806040838503121561064a57610649610539565b5b60006106588582860161061e565b92505060206106698582860161055f565b9150509250929050565b61067c816105c1565b811461068757600080fd5b50565b60008135905061069981610673565b92915050565b600080604083850312156106b6576106b5610539565b5b60006106c48582860161055f565b92505060206106d58582860161068a565b9150509250929050565b600080604083850312156106f6576106f5610539565b5b60006107048582860161068a565b92505060206107158582860161055f565b9150509250929050565b610728816105fd565b82525050565b6000602082019050610743600083018461071f565b92915050565b600082825260208201905092915050565b7f496e737566666963656e742066756e6473000000000000000000000000000000600082015250565b6000610790601183610749565b915061079b8261075a565b602082019050919050565b600060208201905081810360008301526107bf81610783565b9050919050565b7f4e487b7100000000000000000000000000000000000000000000000000000000600052601160045260246000fd5b6000610800826105fd565b915061080b836105fd565b92508282101561081e5761081d6107c6565b5b828203905092915050565b600060408201905061083e60008301856105d3565b61084b602083018461071f565b9392505050565b60008115159050919050565b61086781610852565b811461087257600080fd5b50565b6000815190506108848161085e565b92915050565b6000602082840312156108a05761089f610539565b5b60006108ae84828501610875565b91505092915050565b7f546869732066756e6374696f6e206973206e6f74207075626c69630000000000600082015250565b60006108ed601b83610749565b91506108f8826108b7565b602082019050919050565b6000602082019050818103600083015261091c816108e0565b9050919050565b600061092e826105fd565b9150610939836105fd565b9250827fffffffffffffffffffffffffffffffffffffffffffffffffffffffffffffffff0382111561096e5761096d6107c6565b5b828201905092915050565b600060608201905061098e60008301866105d3565b61099b60208301856105d3565b6109a8604083018461071f565b94935050505056fea2646970667358221220021e7086c2011eed13247bbd396d3138b5c9cfe105fc221fad8a949bfb42f4a064736f6c63430008090033",
  "linkReferences": {},
  "deployedLinkReferences": {}
}